:020000040800F2
:10000000F41F0020B10C00083D3400081D0D00084D
:100010004934000851340008593400080000000039
:100020000000000000000000000000006134000833
:100030006D340008000000007934000885340008A1
:100040001D0D00081D0D00081D0D00081D0D0008E8
:100050001D0D00081D0D00081D0D00081D0D0008D8
:100060001D0D00081D0D00081D0D00081D0D0008C8
:100070001D0D00081D0D00081D0D00081D0D0008B8
:100080001D0D00081D0D00081D0D000800000000DA
:100090000000000000000000000000001D0D00082E
:1000A0001D0D00081D0D00081D0D00081D0D000888
:1000B0001D0D00081D0D00081D0D00081D0D000878
:1000C0001D0D00081D0D00081D0D00081D0D000868
:1000D0001D0D00081D0D00081D0D00081D0D000858
:1000E0001D0D00081D0D00081D0D0008000000007A
:1000F0000000000000000000000000000000000000
:1001000000000000000000000000000000000000EF
:1001100000000000000000001D0D00081D0D00087B
:100120005FF808F180B586B000AFF860B9607A601A
:1001300041F26813C2F200031B681846B96805F063
:1001400037FF41F26813C2F200031A6807F1140383
:100150001046F9687A6805F0B7FD07F11807BD4643
:1001600080BD00BF80B584B000AF78604FF0000361
:10017000FB6007F10C03184679684FF00402FFF7A3
:10018000D1FFFB68184607F11007BD4680BD00BFD0
:1001900080B584B000AF78604FF00003FB8107F1B9
:1001A0000E03184679684FF00202FFF7BBFFFB8988
:1001B000184607F11007BD4680BD00BF80B584B06A
:1001C00000AF78604FF00003FB7307F10F03184690
:1001D00079684FF00102FFF7A5FFFB7B184607F196
:1001E0001007BD4680BD00BF80B584B000AFF86089
:1001F000B9607A607B6803F1FF33F868B9681A4622
:10020000FFF790FFFA687B68D3184FF000021A706E
:1002100007F11007BD4680BD80B483B000AF7860A1
:1002200039607B68002B02D14FF000031AE07B6835
:100230005B68002B08D03B68002B02DB3B680F2B70
:100240000EDD4FF000030DE03B68002B05DB7B6803
:10025000DB891A463B689A4202DC4FF0000301E05A
:100260004FF00103184607F10C07BD4680BC7047EC
:1002700080B58CB000AFF860B9607A603B604FF039
:100280000003BB6241F26813C2F20003FA681A600D
:1002900041F26813C2F200031B68002B00F02281B8
:1002A00041F26813C2F200031B68DB683B62BB6863
:1002B0004FF000029A61BB689B69FB6207F114036F
:1002C0001846F96A4FF00402FFF72CFF3B7D4D2BD7
:1002D00040F008817B7D542B40F00481BB7D682B6E
:1002E00040F00081FB7D642B40F0FC80FB6A03F151
:1002F00004031846FFF736FF0346FB61FB694FEA2C
:100300001362FB694FEA132303F47F431A43FB692B
:100310004FEA032303F47F031A43FB694FEA0363A5
:100320001A43BB689A60FB6A03F108031846FFF79B
:100330002FFF03467B837B8B4FEA13239BB29AB23A
:100340007B8B4FEA03239BB213439BB29AB2BB68E9
:100350009A81FB6A03F10A031846FFF719FF034667
:100360007B837B8B4FEA13239BB29AB27B8B4FEA42
:1003700003239BB213439BB29AB2BB68DA81FB6A38
:1003800003F10C031846FFF703FF03467B837B8BC7
:100390004FEA13239BB29AB27B8B4FEA03239BB2A3
:1003A00013439BB29AB2BB681A82BB689A68FB6A15
:1003B000D31803F10803FB624FF000037B6217E0E0
:1003C000BA687B6A4FEA8313D31803F12C034FF00A
:1003D00000021A60BA687B6A4FEA8313D31803F1EC
:1003E00038034FF000025A717B6A03F101037B620C
:1003F0007B6A0F2BE4DD4FF000037B625BE0BA68A1
:100400007B6A4FEA8313D31803F12403FA6A1A6054
:10041000FB6A03F10802B9687B6A4FEA8313CB18C1
:1004200003F120031A60FB6A03F104031846FFF787
:1004300099FE0346FB61FB694FEA1362FB694FEAD1
:10044000132303F47F431A43FB694FEA032303F4A6
:100450007F031A43FB694FEA03631A43B9687B6A57
:100460004FEA8313CB1803F134031A60BA687B6A2E
:100470004FEA8313D31803F134031A68FB6AD318C5
:1004800003F10802B9687B6A4FEA8313CB1803F1C2
:1004900028031A60BA687B6A4FEA8313D31803F102
:1004A00034031A68FB6AD31803F10803FB627B6A02
:1004B00003F101037B62BB68DB890F2B02D8BB68A9
:1004C000DB8901E04FF010037A6A934297DCBB6846
:1004D0004FF000025A60BB684FF000021A604FF004
:1004E0000103BB62BB6A002B04D13B684FF00002E2
:1004F0001A6003E03B684FF001021A6007F1300711
:10050000BD4680BDB0B582B000AF786039607B6811
:100510007A6802F101027A601846FFF74FFE03463F
:100520001C4604F08003002B15D004F07F047B6888
:100530007A6802F101027A601846FFF73FFE03462F
:100540001D464FEAC4122B4603F07F03D418EBB2CA
:100550005BB2002BEBDB3B681C607B68184607F145
:100560000807BD46B0BD00BF80B584B000AFF860DD
:10057000B9607A603B607B68202B0CD948F6382044
:10058000C0F6000079684FF0200202F005FAFB681F
:100590004FF020029A63FB6803F11503002B02D190
:1005A0004FF0000312E03B68002B0DD0B868FFF756
:1005B00005FE0346002B07D0FB6803F11503184620
:1005C000B9687A68FFF7AEFD4FF00103184607F1EE
:1005D0001007BD4680BD00BF80B485B000AF786015
:1005E0007B68FB60FB68DB89184607F11407BD4692
:1005F00080BC704780B58EB000AFF860B9607A609B
:10060000FB683B63386BB968FFF706FE0346002BB7
:1006100002D14FF00003BCE23B6B03F12002BB6848
:100620004FEA8313D318FB62FB6A1A68FB6A9B6864
:100630009A4202D34FF00003ABE2FB6A1A687B6870
:1006400003F1040310461946FFF75CFF0246FB6AFC
:100650001A60FB6ADA687B685B68D218FB6ADA604A
:10066000FB6ADA687B689A60FB6A1B681846FFF7CA
:10067000A5FD03463B743B7CDBB25BB2002B18DA72
:100680003B7C23F00F03DAB27B681A70FB6A1B68AD
:1006900003F101037B637B681B78F02B11D1FB6AAC
:1006A0001B681846FFF78AFD03461A467B681A70D6
:1006B00007E07B6893F844217B681A70FB6A1B682B
:1006C0007B637B681A787B6883F84421FB6A1B682C
:1006D0001846FFF773FD03463B743B7C03F00F03A2
:1006E000DBB203F10103DAB27B6883F84521786B52
:1006F000FFF764FD03463B747B6B03F1010318466F
:10070000FFF75CFD03467B747B6B03F10203184625
:10071000FFF754FD0346BB747B681B78C02B65D084
:10072000C02B0BDC902B19D0902B02DC802B28D017
:10073000F6E1A02B34D0B02B45D0F1E1F02B00F046
:10074000AA81F02B04DCD02B5FD0E02B6CD0E7E14A
:10075000F72B00F0A081FF2B7FD0E1E17B6893F8BD
:1007600045311A467B681A643B7C1A467B68DA631B
:100770007B7C1A467B685A647B684FF00302DA6020
:10078000CEE17B6893F845311A467B681A643B7C5E
:100790001A467B68DA637B684FF00302DA60BFE1D8
:1007A0007B6893F845311A467B681A643B7C1A468D
:1007B0007B68DA637B7C1A467B685A647B684FF0FF
:1007C0000302DA60ACE17B6893F845311A467B6836
:1007D000DA633A7C7B6883F840207B7C1A467B682E
:1007E0005A647B684FF00302DA6099E17B6893F802
:1007F00045311A467B68DA633B7C1A467B681A648B
:100800007B684FF00202DA608AE17B6893F8453139
:100810001A467B68DA633B7C1A467B681A647B68FD
:100820004FF00202DA607BE17B6893F845311A46AB
:100830007B68DA633B7C1A467B7C4FEAC3131A431E
:100840007B681A647B681B6CA3F500527B681A6492
:100850007B684FF00302DA6062E1FB6A1B68BB62EF
:10086000FB6A1B681846FFF7A9FC03463B74FB6A4A
:100870001B6803F101031846FFF7A0FC03467B74D5
:10088000FB6A1B6803F102031846FFF797FC034657
:10089000BB74FB6A1B6803F103031846FFF78EFC69
:1008A0000346FB74FB6A1B6803F104031846FFF759
:1008B00085FC03463B757A7C7B6883F83C20FB6AA9
:1008C0001B6803F102027B6803F10C031046194612
:1008D000FFF718FE0246FB6A1A60FB6A1A68BB6AD9
:1008E000D21A7B68DB68D3187B62FB6A1A687B6A62
:1008F000786811461A464FF00003FFF735FE0346AD
:10090000002B02D14FF0000343E17B6803F1150295
:100910007B6A1046B96A1A46FFF704FC7B6893F8B5
:100920003C302F2B00F0A9802F2B09DC072B04DC97
:10093000012B1DDA002B16D0A2E0212B0ED09FE058
:10094000582B4BD0582B04DC512B1DD0542B30D0BE
:1009500096E0592B52D07F2B7DD091E03B7C1A46FC
:100960007B681A648CE03B7C1A467B681A6487E0DB
:100970007B6803F14002FB6A1B68104619464FF47E
:100980008072FFF731FC7BE03B7C4FEA03427B7CCB
:100990004FEA03231A43BB7C13433B624FF40743E4
:1009A000C0F293333A6AB3FBF2F31A467B681A64D7
:1009B00066E03B7C1A467B681A647B7C1A467B683F
:1009C0005A64BB7C1A467B689A64FB7C1A467B6837
:1009D000DA643B7D1A467B681A6551E03B7C1A4617
:1009E0007B681A647B7C1A4613464FEA43039B18C4
:1009F0004FEA03231A467B685A6441E03B7CDBB232
:100A00005BB2002B13DA3B7CC3F10003DBB203F0D3
:100A10000703DAB27B6883F840207B6893F84030A4
:100A200063F07F03DAB27B6883F8402006E03B7C0A
:100A300003F00703DAB27B6883F840207B7C002B4D
:100A40001DD07B6893F8403043F04003DAB27B68F6
:100A500083F8402013E07B68DB681A467B68C3F8A4
:100A600040217B6803F14002FB6A1B68104619466F
:100A70004FF48072FFF7B8FB02E000BF00E000BF58
:100A8000FB6A1A687B68DB68D218FB6A1A607A6AAC
:100A90007B68DA6044E0FB6A1B68BB62FB6A1B6828
:100AA00003F101027B6803F10C0310461946FFF7BE
:100AB00029FD0246FB6A1A60FB6A1A68BB6AD21AF1
:100AC0007B68DB68D3187B62FB6A1A687B6A78688C
:100AD00011461A464FF00003FFF746FD0346002B70
:100AE00002D14FF0000354E07B6803F115027B6AEA
:100AF0001046B96A1A46FFF715FBFB6A1A687B684D
:100B0000DB68D218FB6A1A607A6A7B68DA607B68F5
:100B100003F115027B68DA637B687A6A1A6400BFA6
:100B20007B684FF000021A617B681B7803F0F003CA
:100B3000F02B2CD0FB6A1B681846FFF73FFB0346DF
:100B40003B743B7CDBB25BB2002B0EDB7B684FF06F
:100B500001021A617B6893F844217B681A757B68EF
:100B6000DB6803F1FF327B68DA60FB6A1A687B6836
:100B7000DB68786811461A464FF00103FFF7F4FC72
:100B8000FB6A1A687B68DB68D218FB6A1A604FF050
:100B90000103184607F13807BD4680BD80B483B015
:100BA00000AF78607B684FF000021A6107F10C0714
:100BB000BD4680BC704700BF80B485B000AF03461F
:100BC0003960FB80FB887F2B02D8FB88FB8130E0FB
:100BD0003B68002B10D0FB88FF2B09D8FB88A3F1C2
:100BE000800248F65423C0F6000333F8123001E0C7
:100BF0004FF00003FB811CE04FF00003FB810DE090
:100C0000FA8948F65423C0F6000333F81230FA8804
:100C10009A4207D0FB8903F10103FB81FB897F2BFB
:100C2000EED900E000BFFB8903F180039BB2DBB289
:100C3000FB81FB89184607F11407BD4680BC70474D
:100C400080B485B000AF0346FB804FF00003FB602B
:100C500003E0FB6803F10103FB6048F65433C0F680
:100C60000003FA6833F81230002B09D048F65433E9
:100C7000C0F60003FA6833F81230FA889A42E8D1D5
:100C800048F65433C0F60003FA6833F81230002BEC
:100C900007D048F63453C0F60003FA6833F8123030
:100CA00000E0FB88184607F11407BD4680BC70477A
:100CB00080B582B000AF4AF25873C0F600037B6083
:100CC00040F20003C2F200033B600BE07B681A684D
:100CD0003B681A603B6803F104033B607B6803F1E7
:100CE00004037B603A6840F61073C2F200039A4234
:100CF000ECD3084808494FF000028842B8BF40F8DA
:100D0000042BFADB00F00EF801F0B2F807F1080747
:100D1000BD4680BD100F0020F41B002080B400AF42
:100D2000FEE700BF80B500AF4FF48053C4F202036A
:100D30004FF48052C4F20202126842F001021A60BB
:100D40004FF48052C4F202024FF48053C4F2020303
:100D50005B6819464FF00003CFF6FF030B4053606A
:100D60004FF48053C4F202034FF48052C4F20202E3
:100D7000126822F0847222F480321A604FF4805399
:100D8000C4F202034FF48052C4F20202126822F449
:100D900080221A604FF48053C4F202034FF4805251
:100DA000C4F20202526822F4FE025A604FF48053E9
:100DB000C4F202034FF41F029A604FF48053C4F24E
:100DC00002034FF00002DA6200F008F84FF46D43BE
:100DD000CEF200034FF000629A6080BD80B500AF94
:100DE00000F002F880BD00BF80B483B000AF4FF0C8
:100DF00000037B604FF000033B604FF48053C4F26C
:100E000002034FF48052C4F20202126842F48032AC
:100E10001A604FF48053C4F202031B6803F40033DA
:100E20003B607B6803F101037B603B68002B03D1CF
:100E30007B68B3F5A06FECD14FF48053C4F202038A
:100E40001B6803F40033002B03D04FF001033B6019
:100E500002E04FF000033B603B68012B6DD14FF483
:100E60008053C4F202034FF48052C4F2020252686B
:100E70005A604FF48053C4F202034FF48052C4F21C
:100E8000020252685A604FF48053C4F202034FF4D6
:100E90008052C4F2020252685A604FF48053C4F286
:100EA00002034FF48052C4F20202526822F47C1210
:100EB0005A604FF48053C4F202034FF48052C4F2DC
:100EC0000202526842F498125A604FF48053C4F2FE
:100ED00002034FF48052C4F20202126842F08072A0
:100EE0001A6000BF4FF48053C4F202031B6803F082
:100EF0000073002BF6D04FF48053C4F202034FF47A
:100F00008052C4F20202526822F003025A604FF487
:100F10008053C4F202034FF48052C4F202025268BA
:100F200042F002025A6000BF4FF48053C4F2020341
:100F30005B6803F00C03082BF6D107F10C07BD46E4
:100F400080BC704780B586B000AF44F204004FF01B
:100F5000010101F071FE4FF400304FF0010101F08A
:100F600097FE4FF01803FB714FF40173BB804FF0F5
:100F70000203BB7107F104034FF40060C4F20100E7
:100F8000194600F047F84FF00403FB714FF48163FA
:100F9000BB8007F104034FF40060C4F2010019465E
:100FA00000F038F84FF41653BB604FF00003BB81DC
:100FB0004FF00003FB814FF000033B824FF0000332
:100FC000BB824FF00C037B8207F108034FF46050A3
:100FD000C4F20100194601F0EFFE4FF46050C4F274
:100FE00001004FF0010101F0BDFF07F108034FF4CC
:100FF0008840C4F20000194601F0DEFE4FF488403C
:10100000C4F200004FF0010101F0ACFF07F1180736
:10101000BD4680BD80B489B000AF786039604FF0C4
:101020000003FB614FF000033B614FF00003BB6125
:101030004FF00003FB604FF000037B614FF00003B3
:10104000BB603B68DB7803F00F03FB613B68DB7838
:1010500003F01003002B04D03B689B78FA6913431C
:10106000FB613B681B88DBB2002B4ED07B681B68A2
:101070007B614FF00003BB6141E0BB694FF00102AF
:1010800002FA03F3FB603B681B881A46FB681340B7
:101090003B613A69FB689A422DD1BB694FEA8303F1
:1010A000FB60FB684FF00F0202FA03F3BB60BB6802
:1010B0006FEA03037A6913407B61FB68FA6902FAFD
:1010C00003F37A6913437B613B68DB78282B07D1F4
:1010D000BB694FF0010202FA03F27B685A610AE031
:1010E0003B68DB78482B06D1BB694FF0010202FA5E
:1010F00003F27B681A61BB6903F10103BB61BB6941
:10110000072BBAD97B687A691A603B681B88FF2B6A
:1011100053D97B685B687B614FF00003BB6146E09D
:10112000BB6903F108034FF0010202FA03F3FB600D
:101130003B681B881A46FB6813403B613A69FB68B1
:101140009A4230D1BB694FEA8303FB60FB684FF0E2
:101150000F0202FA03F3BB60BB686FEA03037A690C
:1011600013407B61FB68FA6902FA03F37A6913435F
:101170007B613B68DB78282B08D1BB6903F108034E
:101180004FF0010202FA03F27B685A613B68DB7898
:10119000482B08D1BB6903F108034FF0010202FAA2
:1011A00003F27B681A61BB6903F10103BB61BB6990
:1011B000072BB5D97B687A695A6007F12407BD46C9
:1011C00080BC704780B483B000AF78600B467B80F2
:1011D0007A887B681A6107F10C07BD4680BC7047AE
:1011E00080B483B000AF78600B467B807A887B68E0
:1011F0005A6107F10C07BD4680BC704780B483B0CC
:1012000000AF786013460A467A807B707B78002BAB
:1012100003D07A887B681A6102E07A887B685A6119
:1012200007F10C07BD4680BC704700BF80B483B097
:1012300000AF03463960FB7197F90730002B10DAD5
:101240004FF46D43CEF20003FA7902F00F02A2F1DF
:1012500004013A68D2B24FEA0212D2B25B181A768F
:101260000DE04FF46143CEF2000397F907103A689E
:10127000D2B24FEA0212D2B25B1883F8002307F110
:101280000C07BD4680BC704780B582B000AF786067
:101290007A686FF07F439A4202D94FF001031FE052
:1012A0004EF21003CEF200037A6822F07F4202F180
:1012B000FF325A604FF0FF304FF00F01FFF7B6FFDB
:1012C0004EF21003CEF200034FF000029A604EF28D
:1012D0001003CEF200034FF007021A604FF0000334
:1012E000184607F10807BD4680BD00BF80B584B031
:1012F00000AF786039604FF00003FB600EE0FB68E0
:101300007A68D3181B7848F61470C0F600001946A6
:1013100001F042FBFB6803F10103FB60FA683B68E4
:101320009A42ECDB07F11007BD4680BD90B5ADF5E4
:10133000C26D83B002AF07F11003A3F10C03186074
:1013400007F11003A3F10C0341F6CC10C2F2000028
:1013500019684FF0010204F047FB034687F8FF3598
:1013600007F5EC7107F11002A2F10C0207F5F0731A
:10137000A3F10C0341F6CC10C2F200001268FEF794
:1013800077FF07F5F073A3F10C031B68002B00F047
:10139000178407F11003A3F104031846FFF7FEFBBF
:1013A00007F5EC731846FFF717F90346C7F8F83549
:1013B0004FF00103C7F80036FCE34FF00003C7F815
:1013C00000364FF00003C7F80836ECE307F5EC727F
:1013D00007F11003A3F104031046D7F808161A46C4
:1013E000FFF708F90346002B00F0D7834FF0010305
:1013F000C7F8003648F61C70C0F60000D7F808168B
:1014000001F0CAFA07F11003A3F104031B69002BD2
:1014100007D007F11003A3F104031B7DC7F80C36B6
:1014200006E007F11003A3F104031B78C7F80C369C
:1014300007F11003A3F104039B6848F62870C0F677
:101440000000194601F0A8FA07F5B073A3F10C03E8
:101450001846D7F80C1601F06DFE0346002B0AD093
:1014600007F5B073A3F10C0348F63070C0F6000026
:10147000194601F091FAD7F80C36C02B00F0B18074
:10148000C02B0BDC902B3BD0902B02DC802B18D098
:101490002BE3A02B59D0B02B7CD026E3F02B00F00F
:1014A0000E83F02B06DCD02B00F0BA80E02B00F08E
:1014B000D6801AE3F72B00F00283FF2B00F0E280C6
:1014C00013E307F11003A3F10403DA6B07F5B0731C
:1014D000A3F10C031846114601F05CFF07F110035D
:1014E000A3F104031A6C07F5B073A3F10C0348F6DB
:1014F0003470C0F6000011461A4601F04DFAF4E2CD
:1015000007F11003A3F10403DA6B07F5B073A3F13D
:101510000C031846114601F03DFF07F11003A3F13B
:1015200004031A6C07F11003A3F104035C6C07F5C4
:10153000B073A3F10C0348F64070C0F600001146EA
:101540001A46234601F028FACFE207F11003A3F16F
:101550000403DA6B07F5B073A3F10C0318461146C8
:1015600001F018FF07F11003A3F104031A6C07F14F
:101570001003A3F104035C6C07F5B073A3F10C0333
:1015800048F65070C0F6000011461A46234601F096
:1015900003FAAAE207F11003A3F1040393F8403021
:1015A0001A4607F5B073A3F10C031846114601F073
:1015B00089FE07F11003A3F10403DA6B07F11003AE
:1015C000A3F104035C6C07F5B073A3F10C0348F6B8
:1015D0006070C0F6000011461A46234601F0DCF99F
:1015E00083E207F11003A3F104031A6C07F5B0734B
:1015F000A3F10C031846114601F07CFD07F110031E
:10160000A3F10403DA6B07F5B073A3F10C0348F6FA
:101610003470C0F6000011461A4601F0BDF964E2CC
:1016200007F11003A3F104031A6C07F5B073A3F1DB
:101630000C031846114601F045FE07F11003A3F113
:101640000403DA6B07F5B073A3F10C0348F63470AA
:10165000C0F6000011461A4601F09EF945E207F176
:101660001003A3F10403DA6B07F11003A3F10403E1
:101670001B6C48F67070C0F6000011461A4601F067
:101680008BF932E248F67C70C0F6000001F084F974
:1016900007F11003A3F1040393F83C307F2B00F211
:1016A000238201A050F823F0C3180008DD180008B9
:1016B000F918000815190008311900084D1900081B
:1016C0006919000885190008E91A0008E91A0008D4
:1016D000E91A0008E91A0008E91A0008E91A0008DE
:1016E000E91A0008E91A0008E91A0008E91A0008CE
:1016F000E91A0008E91A0008E91A0008E91A0008BE
:10170000E91A0008E91A0008E91A0008E91A0008AD
:10171000E91A0008E91A0008E91A0008E91A00089D
:10172000E91A0008E91A0008E91A0008A9180008CF
:10173000E91A0008E91A0008E91A0008E91A00087D
:10174000E91A0008E91A0008E91A0008E91A00086D
:10175000E91A0008E91A0008E91A0008E91A00085D
:10176000E91A0008A1190008E91A0008E91A000896
:10177000E91A0008E91A0008E91A0008E91A00083D
:10178000E91A0008E91A0008E91A0008E91A00082D
:10179000E91A0008E91A0008E91A0008E91A00081D
:1017A000E91A0008E91A0008E91A0008E91A00080D
:1017B000E91A0008E91A0008E91A0008E91A0008FD
:1017C000E91A0008E91A0008E91A0008E91A0008ED
:1017D000E91A0008E91A0008E91A0008E91A0008DD
:1017E000E91A0008E91A0008E91A0008AF19000808
:1017F000E91A0008E91A0008C9190008E91A0008DE
:10180000E91A0008E91A00080F1A0008491A000826
:10181000E91A0008E91A0008E91A0008E91A00089C
:10182000E91A0008E91A0008E91A0008E91A00088C
:10183000E91A0008E91A0008E91A0008E91A00087C
:10184000E91A0008E91A0008E91A0008E91A00086C
:10185000E91A0008E91A0008E91A0008E91A00085C
:10186000E91A0008E91A0008E91A0008E91A00084C
:10187000E91A0008E91A0008E91A0008E91A00083C
:10188000E91A0008E91A0008E91A0008E91A00082C
:10189000E91A0008E91A0008E91A0008E91A00081C
:1018A000E91A0008851A000807F11003A3F10403E0
:1018B0001B6C48F68470C0F60000194601F06CF805
:1018C000FCE007F11003A3F104031B6C48F69470CD
:1018D000C0F60000194601F05FF8EFE007F11003D1
:1018E000A3F1040303F1400348F6AC70C0F6000016
:1018F000194601F051F8E1E007F11003A3F10403E8
:1019000003F1400348F6B870C0F60000194601F034
:1019100043F8D3E007F11003A3F1040303F14003FC
:1019200048F6CC70C0F60000194601F035F8C5E065
:1019300007F11003A3F1040303F1400348F6E0703C
:10194000C0F60000194601F027F8B7E007F11003D0
:10195000A3F1040303F1400348F6F470C0F600005D
:10196000194601F019F8A9E007F11003A3F10403E7
:1019700003F1400349F20400C0F60000194601F0EB
:101980000BF89BE007F11003A3F1040303F14003FC
:1019900049F21400C0F60000194600F0FDFF8DE08A
:1019A00049F22800C0F6000000F0F6FF86E007F1DB
:1019B0001003A3F104031B6C49F23800C0F60000C9
:1019C000194600F0E9FF79E007F11003A3F10403E1
:1019D000196C07F11003A3F104035A6C07F110030B
:1019E000A3F104039C6C07F11003A3F10403D86C6A
:1019F00007F11003A3F104031B6D0090019349F25A
:101A00004400C0F60000234600F0C6FF56E007F190
:101A10001003A3F10403196C07F11003A3F10403ED
:101A20005A6C4AF6AB23C2F6AA2383FB02034FEAA1
:101A3000A3104FEAE273C31A49F26400C0F6000033
:101A40001A4600F0A9FF39E007F11003A3F10403DF
:101A500093F840301A4607F5B073A3F10C0318460B
:101A6000114601F04FFC0346002B26D007F5B0735A
:101A7000A3F10C0349F27800C0F60000194600F00B
:101A80008BFF1AE049F28800C0F6000000F084FFE6
:101A900007F11003A3F10403D3F8402107F1100369
:101AA000A3F1040303F1400318461146FFF71EFC9F
:101AB0004FF00A0006F0D2FC00E000BF14E049F24B
:101AC000A000C0F6000000F067FF07F11003A3F1CB
:101AD0000403DA6B07F11003A3F104031B6C104637
:101AE0001946FFF703FC00E000BFD7F80C36F02BD7
:101AF00053D0D7F80C36F02B4FD0D7F80C36FF2B3D
:101B000007D107F11003A3F1040393F83C307F2BB6
:101B100043D049F2AC00C0F6000000F03DFF07F1F1
:101B20001003A3F104031B69002B0BD007F1100372
:101B3000A3F104031B7D49F2B000C0F60000194672
:101B400000F02AFF4FF00003C7F8043616E007F153
:101B50001003A3F10403D7F804269B1803F1100324
:101B60005B7948F61470C0F60000194600F014FFC7
:101B7000D7F8043603F10103C7F8043607F1100360
:101B8000A3F10403DA68D7F804369A42DFD849F2A1
:101B9000B800C0F6000000F02DFFD7F8083603F1BA
:101BA0000103C7F80836D7F80826D7F8F8359A425F
:101BB000FFF60CACD7F80036002B7FF4FEAB05E047
:101BC00049F2BC00C0F6000000F014FF07F50577ED
:101BD00007F58067BD4690BD80B582B000AF7860E4
:101BE000396000BF4FF46050C4F201004FF0800133
:101BF00001F0ECF90346002BF4D07B68DBB24FF424
:101C00006050C4F20100194601F0CCF97B68184617
:101C100007F10807BD4680BD80B586B000AFF8600B
:101C2000B9607A603B603B687B61BB68012B05D182
:101C30004FF46053C4F201033B611DE0BB68022B0B
:101C400005D14FF48843C4F200033B6114E03B68C4
:101C50001FE000BF38694FF0800101F0B7F903467B
:101C6000002BF7D07B681B783869194601F09AF988
:101C70007B6803F101037B607B69002B0CBF0023B1
:101C80000123DBB27A6902F1FF327A61002BE0D1E5
:101C90003B68184607F11807BD4680BD80B584B083
:101CA00000AF0346FB7149F2F823C0F60003FB6066
:101CB0004FF00003FB7211E000BFFB681B78002BA4
:101CC0000CBF00230123DBB2FA6802F10102FA60C3
:101CD000002BF2D1FB7A03F10103FB72FA7AFB7954
:101CE0009A4203D0FB681B78002BE5D1FB7949F2BF
:101CF000E400C0F600001946FA6800F04DFE07F156
:101D00001007BD4680BD00BF80B58EB000AF7860C3
:101D100007F10C031846796804F0BAFA034687F80D
:101D2000373097F83730002B40F09980786806F00C
:101D300059FC034687F8363079E041F2A433C2F209
:101D400000039B691B78002B05D041F2A433C2F23B
:101D500000039B6900E0454B3B6341F2A433C2F2B0
:101D600000031B7A03F01003002B36D041F2C4337A
:101D7000C2F200031B8803F101039AB241F2C4339B
:101D8000C2F200031A8097F836307A68D3184FF001
:101D90002F021A7097F8363003F101037A68D318CE
:101DA0001846396B06F0C0FB49F2F400C0F600009B
:101DB000796800F0F1FD7868FFF7A6FF034687F821
:101DC000373097F836307A68D3184FF000021A701F
:101DD00097F83730002B2AD041E041F2A433C2F209
:101DE00000031B6849F2FC00C0F6000079683A6BFA
:101DF00000F0D2FD41F2C633C2F200031B8803F1AA
:101E000001039AB241F2C633C2F200031A8041F2D2
:101E1000A433C2F200031A6841F6C813C2F20003E9
:101E20001B68D21841F6C813C2F200031A6007F10A
:101E30000C03184641F2A431C2F2000104F098FAF2
:101E4000034687F8373097F83730002B07D141F237
:101E5000A433C2F200035B7A002B7FF46EAF97F8D5
:101E60003730184607F13807BD4680BDAD13002056
:101E70002DE9F041ADF5916D08AF4FF004004FF042
:101E8000010100F0D9FE4FF48073A7F860344FF0E1
:101E9000180387F863344FF0030387F8623407F5BB
:101EA0008C634FF40060C4F201001946FFF7B2F8EA
:101EB0004FF0040000F070FF4FF40060C4F2010026
:101EC0004FF001014FF00102FFF798F94FF00103C5
:101ED000A7F860344FF0100387F8633407F58C637C
:101EE0004FF40060C4F201001946FFF793F84FF079
:101EF00015004FF0010100F09FFE4FF0100387F82E
:101F000063344FF48073A7F860344FF0020387F80E
:101F1000623407F58C634FF48050C4F20100194617
:101F2000FFF778F84FF40073A7F8603407F58C6377
:101F30004FF48050C4F201001946FFF76BF84FF4DC
:101F40008050C4F201004FF480714FF00102FFF79E
:101F500055F9FEF7F7FF40F20003C2F200031A68DA
:101F600044F6D353C1F26203A3FB02134FEA931367
:101F70001846FFF789F90346002B00D0FEE749F227
:101F80001010C0F6000000F035FD07F5886303F17E
:101F90000C03184600F06AFDD7F84C14D7F850240B
:101FA000D7F85434D7F85844D7F85C04009401901B
:101FB00049F22810C0F6000000F0EEFC4FF00000DF
:101FC00004F0FAFE034603F00103DBB2002B06D057
:101FD00049F26C10C0F6000000F00CFD4CE007F573
:101FE00089634FF000004FF001011A4605F014F923
:101FF00007F5886303F107034FF000004FF00A0173
:102000001A4605F009F997F8473403F00103DBB2EB
:10201000002B06D049F28410C0F6000000F0BCFC92
:102020001FE097F8473403F00203002B06D049F273
:102030008810C0F6000000F0AFFC12E097F84734BB
:1020400003F00403002B06D049F29010C0F6000004
:1020500000F0A2FC05E049F29810C0F6000000F084
:102060009BFCD7F848344FEAD32349F2A010C0F6BE
:102070000000194600F090FC07F10803A3F10403E7
:102080001A464FF4806310464FF000011A4606F0DE
:1020900095F94FF0000041F26C11C2F2000103F01B
:1020A00071FC3B4649F2B410C0F60000194641F2FB
:1020B000A032C2F2000204F0ADF9034687F867349B
:1020C00097F86734002B05D097F867341846FFF768
:1020D000E5FD6DE041F2A033C2F200031B681B78FE
:1020E000194641F2A033C2F200031B681B78012B92
:1020F00011D041F2A033C2F200031B681B78022BFF
:1021000004D149F2B813C0F6000303E049F2C0134A
:10211000C0F6000303E049F2C813C0F6000341F221
:10212000A032C2F20002126892784FEA422441F2D1
:10213000A032C2F200021268D278904641F2A03278
:10214000C2F2000212681289944641F2A032C2F231
:1021500000021268D2F81CE041F2A032C2F2000282
:1021600012689269A2F1020641F2A032C2F20002A4
:102170001268556A41F2A032C2F200021268906AF7
:1021800041F2A032C2F200021268D26ACDF8008099
:10219000CDF804C0CDF808E00396049505900692AA
:1021A00049F2D010C0F600001A46234600F0F4FBB6
:1021B00041F2C433C2F200034FF000021A8041F230
:1021C000C433C2F200031A8841F2C633C2F20003DC
:1021D0001A8041F2C633C2F200031B881A4641F648
:1021E000C813C2F200031A6041F2A433C2F2000322
:1021F00041F2C872C2F200029A6141F2A433C2F203
:1022000000034FF40072DA6107F10803A3F104033D
:102210001846FFF779FD034687F8673497F8673467
:10222000002B05D097F867341846FFF737FD43E0D9
:1022300041F2C633C2F200031B88194641F6C813A7
:10224000C2F200031A6841F2C433C2F200031B88D1
:102250001C4641F2A033C2F200031B689B69A3F144
:10226000020041F2A033C2F200031B689B784FEAE0
:102270005303DBB203FB00F34FEA932041F2A03398
:10228000C2F200031B689B784FEA5303DBB23D4662
:102290002D6805FB03F3002B03DA03F57E7303F1CE
:1022A00007034FEAA3230090019349F29420C0F65C
:1022B0000000234600F070FB49F2E020C0F6000069
:1022C000FFF734F8FEE700BF80B483B000AF78605A
:1022D0000B46FB707B68FA781A704FF001031846C2
:1022E00007F10C07BD4680BC704700BF80B485B0C5
:1022F00000AF786039604FF00003FB600FE03B688F
:102300001A787B681A707B6803F101037B603B6875
:1023100003F101033B60FB6803F10103FB603B68D1
:102320001B78002BEBD1FB68184607F11407BD465C
:1023300080BC704780B586B000AFF8607A603B60C3
:102340000B46FB724FF000037B617B6803F1FF33A8
:102350007B603B68092B26D93A684CF6CD43CCF616
:10236000CC43A3FB02134FEAD303FA7AF868114671
:102370007A68FFF7DFFF03467B617B69FA68D31851
:10238000FB6013E0FB7AF8681946FFF79DFFFB68D6
:1023900003F10103FB607B6903F101037B617B684F
:1023A00003F1FF337B607B68002BEBDC39684CF674
:1023B000CD43CCF6CC43A3FB01234FEAD302134613
:1023C0004FEA83039B184FEA4303CA1AD3B203F1BF
:1023D0003003DBB2F8681946FFF776FF03467A69E7
:1023E000D3187B617B69184607F11807BD4680BD8D
:1023F00080B586B000AFF8607A603B600B46FB7238
:102400004FF000037B613B68002B04DA3B68C3F1AB
:1024100000033B6101E03B683B617B6803F1FF33F4
:102420007B603B69092B2CD93B68002B13DA3A6996
:102430004CF6CD43CCF6CC43A3FB02134FEAD303B7
:10244000C3F10003FA7AF86811467A68FFF7D0FF03
:1024500003467B6110E03A694CF6CD43CCF6CC43A1
:10246000A3FB02134FEAD303FA7AF86811467A689D
:10247000FFF7BEFF03467B617B69FA68D318FB60F8
:102480002BE03B68002B15DA7B6803F1FF337B60A0
:1024900010E0FB7AF8681946FFF716FFFB6803F1B6
:1024A0000103FB607B6903F101037B617B6803F13E
:1024B000FF337B607B68002BEBDC3B68002B0CDA86
:1024C000F8684FF02D01FFF7FFFE03467A69D31835
:1024D0007B61FB6803F10103FB6039694CF6CD4376
:1024E000CCF6CC43A3FB01234FEAD30213464FEAB9
:1024F00083039B184FEA4303CA1AD3B203F1300394
:10250000DBB2F8681946FFF7DFFE03467A69D31895
:102510007B617B69184607F11807BD4680BD00BF87
:1025200080B588B002AFF8607A600A46FA72BB7272
:102530004FF000037B617B6803F1FF337B603B6AF4
:102540004FEA1313002B24D03B6A4FEA1311FA7A97
:10255000BB7A0091F86811467A68FFF7E1FF0346FD
:102560007A69D3187B617B69FA68D318FB6013E042
:10257000FB7AF8681946FFF7A7FEFB6803F1010331
:10258000FB607B6903F101037B617B6803F1FF332F
:102590007B607B68002BEBDC3B6A03F00F03092BAD
:1025A0000CD83B6ADBB203F00F03DBB203F130035C
:1025B000DBB2F8681946FFF787FE1BE0BB7A002BF9
:1025C0000CD03B6ADBB203F00F03DBB203F137033D
:1025D000DBB2F8681946FFF777FE0BE03B6ADBB227
:1025E00003F00F03DBB203F15703DBB2F8681946BF
:1025F000FFF76AFE7B6903F101037B617B69184683
:1026000007F11807BD4680BD80B58AB002AFF860FB
:10261000B9607A603B604FF00003BB614FF000038C
:102620007B61FB68002B00F02281FB684FF0000209
:102630001A701CE17B681B78252B10D07B681A78F8
:10264000FB681A70FB6803F10103FB607B6803F110
:1026500001037B607B6903F101037B6108E17B6817
:1026600003F101031B78252B10D1FB684FF02502E5
:102670001A70FB6803F10103FB607B6803F102033E
:102680007B607B6903F101037B61F1E04FF0200384
:10269000FB774FF00003BB777B6803F101037B609E
:1026A0007B681B78302B1BD14FF03003FB777B68A6
:1026B00003F101037B6013E0BB7F1A464FEA8202FD
:1026C000D3184FEA4303DAB27B681B78D318DBB226
:1026D000A3F13003BB777B6803F101037B6000E06B
:1026E00000BF7B681B782F2B03D97B681B78392BA5
:1026F000E2D9BA7F7B69D3181A46BB689A4205D9DA
:10270000BB68DAB27B69DBB2D31ABB777B681B7814
:10271000A3F15803202B00F29A8001A252F823F073
:10272000FB2700084F2800084F2800084F28000802
:102730004F2800084F2800084F2800084F2800089D
:102740004F2800084F2800084F28000835280008A7
:10275000A52700084F2800084F2800084F28000828
:102760004F280008A52700084F2800084F28000818
:102770004F2800084F2800084F2800084F2800085D
:102780004F2800084F2800084F2800081D2800087F
:102790004F280008BF2700084F2800084F280008CE
:1027A000D9270008BA7F3B6803F1040139601B6830
:1027B000F97FF868FFF71CFE0346BB614AE0BA7F69
:1027C0003B6803F1040139601B68F97FF868FFF783
:1027D000B1FD0346BB613DE0BA7F3B6803F10401F4
:1027E00039601968FB7F0091F86819464FF00003C3
:1027F000FFF796FE0346BB612CE0BA7F3B6803F10E
:10280000040139601968FB7F0091F86819464FF0A0
:102810000103FFF785FE0346BB611BE03B6803F144
:1028200004023A601B68F8681946FFF75FFD03462B
:10283000BB610FE03B6803F104023A601B68DBB246
:10284000F8681946FFF740FD0346BB6102E04FF010
:10285000FF332CE07B6803F101037B60BB69FA68FE
:10286000D318FB607A69BB69D3187B6100E000BFB5
:102870007B681B78002B04D07A69BB689A42FFF40E
:10288000D9AE7A69BB689A4204D2FB684FF0000265
:102890001A700BE0FB6803F1FF33FB60FB684FF03D
:1028A00000021A707B6903F1FF337B617B69184674
:1028B00007F12007BD4680BD80B584B000AFF86049
:1028C000B9607A60F8684FF40071BA687B68FFF706
:1028D0009BFE0346184607F11007BD4680BD00BFAA
:1028E000B0B5ADF50E7D00AF07F10C03186007F130
:1028F0000803196007F104031A6007F1140249F292
:102900009033C0F6000314461D460FCD0FC40FCD03
:102910000FC42B68236007F1380107F1080207F1A3
:102920000403084611681A68FFF7C6FF024640F222
:10293000FF139A420CDD40F2D063C2F200031B6821
:10294000DB6807F114021046194600F067F8FEE74D
:1029500007F1380207F10C031046196800F05EF821
:102960000346184607F50E77BD46B0BD80B582B068
:1029700000AF7860396040F2D063C2F200031B6898
:102980009B68184679683A68FFF7AAFF034618461D
:1029900007F10807BD4680BD0FB480B582B000AF17
:1029A00007F114033B6038693968FFF7DFFF03461E
:1029B0007B607B68184607F10807BD46BDE880408C
:1029C00004B070470EB480B585B000AF786007F1F1
:1029D0002003BB607868F969BA68FFF76DFF0346AA
:1029E000FB60FB68184607F11407BD46BDE8804050
:1029F00003B0704780B582B000AF786040F2D0631A
:102A0000C2F200031B689B687868194600F006F85C
:102A10000346184607F10807BD4680BD80B584B05F
:102A200000AF786039604FF00003FB6014E07B6812
:102A30001B7818463968FFF7CFF80346B3F1FF3F1C
:102A400002D14FF0FF330CE0FB6803F10103FB60A0
:102A50007B6803F101037B607B681B78002BE6D168
:102A6000FB68184607F11007BD4680BD80B489B0E9
:102A700000AF78604FF00003FB614FF00003BB61D3
:102A80004FF000037B614FF000033B614FF0000308
:102A9000FB604FF48053C4F202035B6803F00C0345
:102AA000FB61FB69042B0AD0082B0FD0002B47D108
:102AB0007A684FF49053C0F27A03136047E07A6863
:102AC0004FF49053C0F27A03136040E04FF4805308
:102AD000C4F202035B6803F47013BB614FF48053CC
:102AE000C4F202035B6803F480337B61BB694FEA85
:102AF000934303F10203BB617B69002B09D1BA69DF
:102B00004FF41063C0F23D0303FB02F27B681A60CE
:102B10001DE04FF48053C4F20203DB6A03F00F039D
:102B200003F10103FB604FF49053C0F27A03FA689B
:102B3000B3FBF2F3BA6902FB03F27B681A6006E0AA
:102B40007A684FF49053C0F27A03136000BF4FF4D9
:102B50008053C4F202035B6803F0F003FB61FB697E
:102B60004FEA1313FB6140F21403C2F20003FA6947
:102B70009B181B78DBB23B617B681A683B6922FAC1
:102B800003F27B685A604FF48053C4F202035B681F
:102B900003F4E063FB61FB694FEA1323FB6140F23E
:102BA0001403C2F20003FA699B181B78DBB23B6185
:102BB0007B685A683B6922FA03F27B689A604FF49B
:102BC0008053C4F202035B6803F46053FB61FB694A
:102BD0004FEAD323FB6140F21403C2F20003FA6907
:102BE0009B181B78DBB23B617B685A683B6922FA11
:102BF00003F27B68DA604FF48053C4F202035B682F
:102C000003F44043FB61FB694FEA9333FB6140F2FD
:102C10002403C2F20003FA699B181B78DBB23B6104
:102C20007B68DA683B69B2FBF3F27B681A6107F1F3
:102C30002407BD4680BC704780B483B000AF786085
:102C40000B46FB70FB78002B0DD04FF48053C4F281
:102C500002034FF48052C4F20202926911467A686C
:102C60000A439A610EE04FF48053C4F202034FF41A
:102C70008052C4F20202926911467A686FEA020237
:102C80000A409A6107F10C07BD4680BC704700BF3F
:102C900080B483B000AF78600B46FB70FB78002BEC
:102CA0000DD04FF48053C4F202034FF48052C4F2AB
:102CB0000202D26911467A680A43DA610EE04FF4E3
:102CC0008053C4F202034FF48052C4F20202D2696C
:102CD00011467A686FEA02020A40DA6107F10C07CE
:102CE000BD4680BC704700BF80B483B000AF786041
:102CF0000B46FB70FB78002B0DD04FF48053C4F2D1
:102D000002034FF48052C4F20202D26811467A687C
:102D10000A43DA600EE04FF48053C4F202034FF42A
:102D20008052C4F20202D26811467A686FEA020247
:102D30000A40DA6007F10C07BD4680BC704700BF4F
:102D400080B483B000AF78600B46FB70FB78002B3B
:102D50000DD04FF48053C4F202034FF48052C4F2FA
:102D60000202126911467A680A431A610EE04FF4B2
:102D70008053C4F202034FF48052C4F2020212697B
:102D800011467A686FEA02020A401A6107F10C07DD
:102D9000BD4680BC704700BF80B483B000AF03461F
:102DA000FB7141F20703C4F20203FA791A7007F1CA
:102DB0000C07BD4680BC704780B58CB000AF786012
:102DC00039604FF00003FB624FF00003BB624FF02D
:102DD00000037B624FF000033B624FF00003FB6196
:102DE0007B68FB617B681B8A9BB2FB62FA6A4CF6CC
:102DF000FF731340FB623B68DB88FA6A1343FB6294
:102E0000FB6A9AB27B681A827B689B899BB2FB62E1
:102E1000FA6A4EF6F3131340FB623B689A883B68EC
:102E20001B8913439AB23B685B8913439BB2FA6ACE
:102E30001343FB62FB6A9AB27B689A817B689B8A28
:102E40009BB2FB62FA6A4FF6FF431340FB623B689A
:102E50009B89FA6A1343FB62FB6A9AB27B689A8287
:102E600007F108031846FFF701FEFA694FF46053B3
:102E7000C4F201039A4202D17B69BB6201E03B6963
:102E8000BB627B689B899BB29BB21BB2002B0FDAA3
:102E9000BA6A13464FEA83039B184FEA83029A18D3
:102EA0003B681B684FEA4303B2FBF3F37B620EE01F
:102EB000BA6A13464FEA83039B184FEA83029A18B3
:102EC0003B681B684FEA8303B2FBF3F37B627A6AC9
:102ED00048F21F53C5F2EB13A3FB02134FEA53133F
:102EE0004FEA0313FB62FB6A4FEA13134FF06402CD
:102EF00002FB03F37A6AD31A3B627B689B899BB21D
:102F00009BB21BB2002B12DA3B6A4FEAC30303F1F8
:102F1000320248F21F53C5F2EB13A3FB02134FEA30
:102F2000531303F00703FA6A1343FB6211E03B6A91
:102F30004FEA031303F1320248F21F53C5F2EB13B9
:102F4000A3FB02134FEA531303F00F03FA6A134370
:102F5000FB62FB6A9AB27B681A8107F13007BD46B3
:102F600080BD00BF80B483B000AF78600B46FB70BB
:102F7000FB78002B08D07B689B899BB243F40053FD
:102F80009AB27B689A8107E07B689B899BB223F4A5
:102F900000539AB27B689A8107F10C07BD4680BC4A
:102FA000704700BF80B483B000AF78600B467B8071
:102FB0007B884FEAC3534FEAD3539AB27B689A8017
:102FC00007F10C07BD4680BC704700BF80B485B0D8
:102FD00000AF78600B467B804FF00003FB737B688B
:102FE0001B889AB27B8813409BB2002B03D04FF012
:102FF0000103FB7302E04FF00003FB73FB7B1846F9
:1030000007F11407BD4680BC704700BF80B485B08F
:1030100000AF786040F61073C2F200031B68002B0B
:1030200008D140F61073C2F2000341F6FC72C2F2FE
:1030300000021A6040F61073C2F200031B68FB60C6
:1030400040F61073C2F200031A687B68D21840F68B
:103050001073C2F200031A60FB68184607F11407E8
:10306000BD4680BC704700BF80B483B000AF7860BD
:103070004FF0FF33184607F10C07BD4680BC704780
:1030800080B483B000AF786039603B684FF4005281
:103090005A604FF00003184607F10C07BD4680BC8C
:1030A000704700BF80B483B000AF78604FF0010379
:1030B000184607F10C07BD4680BC704780B485B048
:1030C00000AFF860B9607A604FF00003184607F16E
:1030D0001407BD4680BC704780B485B000AFF8606F
:1030E000B9607A604FF00003184607F11407BD4637
:1030F00080BC704780B582B000AF786039603B68B3
:10310000002B02DB3B687F2B02DD4FF000030CE05D
:1031100040F22803C2F200033A6853F8223078687C
:10312000194605F001FA4FF00103184607F10807A8
:10313000BD4680BD80B582B000AF78600B46FB70A5
:10314000FB78C02B59D0C02B0BDC902B28D0902BB8
:1031500002DC802B15D0AAE0A02B30D0B02B3DD0C4
:10316000A5E0F02B00F08580F02B04DCD02B53D0B1
:10317000E02B60D09BE0F72B00F08A80FF2B69D01A
:1031800095E07A684AF20053C0F6000311461A46E9
:103190004FF00903084611461A4605F0CDF889E0BC
:1031A0007A684AF20C53C0F6000311461A464FF0F3
:1031B0000803084611461A4605F0BEF87AE07A6818
:1031C0004AF21453C0F6000311461A464FF0120398
:1031D000084611461A4605F0AFF86BE07A684AF2E5
:1031E0002853C0F6000311461A464FF00E03084656
:1031F00011461A4605F0A0F85CE07A684AF23853A6
:10320000C0F6000311461A464FF00C03084611465B
:103210001A4605F091F84DE07A684AF24453C0F638
:10322000000311461A464FF01003084611461A468D
:1032300005F082F83EE07A684AF25453C0F6000383
:1032400011461A464FF01003084611461A4605F07B
:1032500073F82FE07A684AF26453C0F6000311460F
:103260001A464FF00B03084611461A4605F064F85B
:1032700020E07A684AF27053C0F6000311461A46FD
:103280004FF00703084611461A4605F055F811E0BD
:103290007A684AF27853C0F6000311461A464FF096
:1032A0000703084611461A4605F046F802E04FF0BB
:1032B000000301E04FF00103184607F10807BD467F
:1032C00080BD00BF80B582B000AF78600B46FB7058
:1032D000FB785BB2002B02DA4FF000030CE0FA78C7
:1032E00040F22843C2F2000353F8223078681946AE
:1032F00005F01AF94FF00103184607F10807BD461B
:1033000080BD00BF80B586B000AF78600B46FB7013
:10331000FB7803F007037B61FB7803F080033B61DC
:10332000FB7803F04003FB603B69002B0CBF0022DD
:10333000012240F28863C2F200034FEAC2017A69B7
:103340008A1853F822307868194605F0EDF8786845
:1033500005F048F903467A68D218FB68002B04D0C0
:103360004AF28053C0F6000303E04AF28853C0F6E5
:10337000000311461A464FF00503084611461A4647
:1033800004F0DAFF4FF00103184607F11807BD46B5
:1033900080BD00BF90B583B000AF786039607B68B6
:1033A000002B02D14FF0000342E03B68002B02DB10
:1033B0003B687F2B0EDD7A684AF26863C0F6000333
:1033C00011461A464FF00403084611461A4604F007
:1033D000B3FF2CE039684AF6AB23C2F6AA2383FB7D
:1033E00001234FEA63024FEAE173D21A13464FEA10
:1033F00043039B184FEA8303CA1A40F22863C2F2C0
:10340000000353F822403A684AF6AB23C2F6AA23D7
:1034100083FB02134FEA63014FEAE273CB1A786829
:103420004AF26C61C0F600012246FFF7CBFA7B68D6
:10343000184607F10C07BD4690BD00BF80B400AF31
:10344000BD4680BC704700BF80B400AFFEE700BF40
:1034500080B400AFFEE700BF80B400AFFEE700BF5E
:1034600080B400AFBD4680BC704700BF80B400AFE1
:10347000BD4680BC704700BF80B400AFBD4680BC75
:10348000704700BF80B500AF40F61473C2F200036E
:103490001B8803F101039AB240F61473C2F20003D1
:1034A0001A8040F61473C2F200031A8840F2F31334
:1034B0009A4231D940F61473C2F200034FF0000271
:1034C0001A8040F61673C2F200031B78002B0AD054
:1034D0004FF48050C4F201004FF400714FF001022C
:1034E000FDF78CFE09E04FF48050C4F201004FF468
:1034F00000714FF00002FDF781FE40F61673C2F234
:1035000000031B78002B14BF00230123DAB240F61E
:103510001673C2F200031A7040F61773C2F200036A
:103520001B7803F10103DAB240F61773C2F200030D
:103530001A7040F61773C2F200031B78092B08D9E2
:1035400040F61773C2F200034FF000021A7004F045
:1035500085F880BD80B487B000AFF860B9607A604C
:10356000FB687B61BB683B610BE03B691A787B6958
:103570001A707B6903F101037B613B6903F101036D
:103580003B617B68002B0CBF00230123DBB27A6810
:1035900002F1FF327A60002BE7D107F11C07BD462C
:1035A00080BC704780B487B000AFF860B9607A60C3
:1035B000FB687B6107E0BB68DAB27B691A707B69E4
:1035C00003F101037B617B68002B0CBF0023012307
:1035D000DBB27A6802F1FF327A60002BEBD107F19F
:1035E0001C07BD4680BC704780B489B000AFF8604E
:1035F000B9607A60FB68FB61BB68BB614FF0000398
:103600007B6100BF7B68002B0CBF00230123DBB272
:103610007A6802F1FF327A60002B16D0FB691B78C2
:103620001A46BB691B78D31A7B617B69002B14BFD8
:1036300000230123DBB2FA6902F10102FA61BA69DF
:1036400002F10102BA61002BDCD17B69184607F157
:103650002407BD4680BC704780B483B000AF78605B
:10366000396003E07B6803F101037B607B681B78B2
:10367000002B05D07B681B781A463B689A42F1D133
:103680007B681B78184607F10C07BD4680BC704765
:1036900080B584B000AF78607B681B79002B41D087
:1036A0007B681B6BFB607B685A787B6803F1340393
:1036B00010461946FA684FF0010303F017FD034660
:1036C000002B02D04FF001032EE07B684FF0000288
:1036D0001A717B685A6AFB689A4223D87B685A6AD7
:1036E0007B68DB69D218FB689A421BD97B68DB7860
:1036F000BB6014E07B68DB69FA68D318FB607B6809
:103700005A787B6803F1340310461946FA684FF083
:10371000010303F0EBFCBB6803F1FF33BB60BB6844
:10372000012BE7D84FF00003184607F11007BD46FC
:1037300080BD00BF80B582B000AF786039607B6823
:103740001A6B3B689A421DD07868FFF7A1FF0346C9
:10375000002B02D04FF0010316E07B685A787B689B
:1037600003F13403104619463A684FF0010303F0A1
:1037700049FC0346002B02D04FF0010304E07B68B4
:103780003A681A634FF00003184607F10807BD4670
:1037900080BD00BF80B483B000AF786039603B6803
:1037A000A3F102033B607B689B69A3F102023B68C3
:1037B0009A4202D84FF0000307E07B689B783A6892
:1037C00002FB03F27B68DB6AD318184607F10C078B
:1037D000BD4680BC704700BF80B586B000AF786042
:1037E00039603B68012B04D97B689A693B689A422F
:1037F00002D84FF00103B9E07B681B78022B53D04D
:10380000032B77D0012B40F0AF803B687B617B6955
:103810004FEA53037A69D3187B617B685A6A7B69E4
:103820004FEA5323D31878681946FFF783FF0346FE
:10383000002B40F092807B694FEAC3534FEAD35389
:103840007A68D31893F834303B617B6903F1010344
:103850007B617B685A6A7B694FEA5323D318786887
:103860001946FFF767FF0346002B78D17B694FEAC3
:10387000C3534FEAD3537A68D31893F834304FEADE
:1038800003233A6913433B613B6803F00103DBB256
:10389000002B03D03B694FEA131304E03B694FEA66
:1038A00003534FEA135361E07B685A6A3B684FEA5F
:1038B0001323D31878681946FFF73CFF0346002B03
:1038C0004FD17B6803F134023B684FEA43034FEA70
:1038D000C3534FEAD353D318FB60FB6803F10103D2
:1038E0001B784FEA03239AB2FB681B7813439BB201
:1038F0009BB23BE07B685A6A3B684FEAD313D3180C
:1039000078681946FFF716FF0346002B2BD17B681A
:1039100003F134023B684FEA83034FEAC3534FEA93
:10392000D353D318FB60FB6803F103031B784FEA02
:103930000362FB6803F102031B784FEA03431A4357
:10394000FB6803F101031B784FEA03231A43FB686A
:103950001B78134323F0704308E000BF04E000BF6E
:1039600002E000BF00E000BF4FF0FF33184607F150
:103970001807BD4680BD00BF80B588B000AFF860B5
:10398000B9607A60BB68012B04D9FB689A69BB688F
:103990009A4203D84FF00203FB7714E1FB681B78CF
:1039A000022B00F08180032B00F0A880012B40F057
:1039B000FB80BB68BB61BB694FEA5303BA69D3188C
:1039C000BB61FB685A6ABB694FEA5323D318F86896
:1039D0001946FFF7AFFE0346FB77FB7F002B40F055
:1039E000E780FB6803F13402BB694FEAC3534FEA37
:1039F000D353D3187B61BB6803F00103DBB2002B08
:103A00000ED07B691B78DBB203F00F03DAB27B6860
:103A1000DBB24FEA0313DBB21343DBB2DBB201E0EC
:103A20007B68DBB27A691370BB6903F10103BB6188
:103A3000FB684FF001021A71FB685A6ABB694FEAD2
:103A40005323D318F8681946FFF774FE0346FB7733
:103A5000FB7F002B40F0AE80FB6803F13402BB69B2
:103A60004FEAC3534FEAD353D3187B61BB6803F0CB
:103A70000103DBB2002B04D07B684FEA1313DBB2E7
:103A80000FE07B691B78DBB223F00F03DAB27B68AF
:103A90004FEA1323DBB203F00F03DBB21343DBB2B5
:103AA000DBB27A6913708AE0FB685A6ABB684FEA36
:103AB0001323D318F8681946FFF73CFE0346FB773B
:103AC000FB7F002B78D1FB6803F13402BB684FEA1F
:103AD00043034FEAC3534FEAD353D3187B617B6848
:103AE000DAB27B691A707B6903F101037A6892B2DA
:103AF0004FEA122292B2D2B21A7060E0FB685A6AA0
:103B0000BB684FEAD313D318F8681946FFF712FEC3
:103B10000346FB77FB7F002B50D1FB6803F1340297
:103B2000BB684FEA83034FEAC3534FEAD353D3181A
:103B30007B617B6903F103031B784FEA03627B69B6
:103B400003F102031B784FEA03431A437B6903F135
:103B500001031B784FEA03231A437B691B78134345
:103B600003F070437A6813437B607B68DAB27B6949
:103B70001A707B6903F101037A6892B24FEA12224C
:103B800092B2D2B21A707B6903F102037A684FEAEB
:103B90001242D2B21A707B6903F103037A684FEACA
:103BA0001262D2B21A700AE04FF00203FB7706E00D
:103BB00000BF04E000BF02E000BF00E000BFFB6800
:103BC0004FF001021A71FB7F184607F12007BD462E
:103BD00080BD00BF80B584B000AF786039603B68BD
:103BE000012B04D97B689A693B689A4203D84FF04D
:103BF0000203FB7340E04FF00003FB7333E078688F
:103C00003968FFF7E9FD0346BB60BB68002B30D085
:103C1000BB68012B03D14FF00203FB732CE0BB68A0
:103C2000B3F1FF3F03D14FF00103FB7324E0786849
:103C300039684FF00002FFF79FFE0346FB73FB7BE2
:103C4000002B18D17B681B69B3F1FF3F09D07B685B
:103C50001B6903F101027B681A617B684FF0010266
:103C60005A71BB683B607B689A693B689A42C6D8C8
:103C700002E000BF00E000BFFB7B184607F1100721
:103C8000BD4680BD80B586B000AF786039603B68C6
:103C9000002B0ED17B68DB683B613B69002B04D0B5
:103CA0007B689A693B699A4218D84FF001033B61DF
:103CB00014E078683968FFF78FFD0346BB60BB6886
:103CC000012B02D84FF001036EE07B689A69BB6854
:103CD0009A4201D9BB6867E03B683B613B697B6105
:103CE00000E000BF7B6903F101037B617B689A6997
:103CF0007B699A4209D84FF002037B617A693B697C
:103D00009A4202D94FF000034EE078687969FFF7D4
:103D100063FD0346BB60BB68002B0FD0BB68B3F1EB
:103D2000FF3F02D0BB68012B01D1BB683CE07A6940
:103D30003B699A42D5D14FF0000335E000BF786867
:103D400079696FF07042FFF717FE0346FB73FB7B48
:103D5000002B09D13B68002B06D0786839687A6956
:103D6000FFF70AFE0346FB73FB7B002B12D17B6837
:103D70007A69DA607B681B69B3F1FF3F13D07B6817
:103D80001B6903F1FF327B681A617B684FF0010207
:103D90005A7108E0FB7B012B02D14FF0FF3301E0A9
:103DA0004FF001037B617B69184607F11807BD4698
:103DB00080BD00BF80B584B000AF78600B467B80CB
:103DC0007B687A88DA807B689B68FB60FB68012BE4
:103DD00005D07B681B689A69FB689A4202D84FF04D
:103DE00002036EE0FB68002B08D17B681B681B7820
:103DF000032B03D17B681B689B6AFB60FB68002B6D
:103E000016D17B68FA68DA607B681B681B897A8840
:103E10009A4202D34FF0020353E07B681B689A6A10
:103E20007B884FEA13139BB2D2187B681A613AE081
:103E30007B681B689B784FEA03137B811EE07B68DD
:103E40001B681846F968FFF7C7FC0346FB60FB6870
:103E5000B3F1FF3F02D14FF0010332E0FB68012BC9
:103E600005D97B681B689A69FB689A4202D84FF0B3
:103E7000020326E07A887B89D31A7B807A887B8943
:103E80009A42DCD27B68FA68DA607B681B68184665
:103E9000F968FFF77FFC02467B884FEA13139BB259
:103EA000D2187B681A617B681B6803F134027B8837
:103EB00003F00F034FEA4313D2187B685A614FF0A7
:103EC0000003184607F11007BD4680BD90B585B0C8
:103ED00000AF786039607B68DB8803F101033B81C8
:103EE0003B89002B03D07B681B69002B02D14FF06C
:103EF0000403D1E03B8903F00F039BB2002B40F099
:103F0000BA807B681B6903F101027B681A617B68D8
:103F1000DB68002B09D17B681B681B893A899A42B0
:103F2000C0F0A9804FF00403B6E03B894FEA1313B9
:103F30009BB21A467B681B689B7803F1FF331340E2
:103F4000002B40F098807B681A687B68DB6810461D
:103F50001946FFF741FC0346FB60FB68012B02D8C2
:103F60004FF0020398E0FB68B3F1FF3F02D14FF03E
:103F7000010391E07B681B689A69FB689A426ED8DE
:103F80003B68002B02D14FF0040385E07B681A6880
:103F90007B68DB6810461946FFF774FE0346FB603A
:103FA000FB68002B02D14FF0070375E0FB68012B83
:103FB00002D14FF002036FE0FB68B3F1FF3F02D183
:103FC0004FF0010368E07B681B681846FFF760FB51
:103FD0000346002B02D04FF001035DE07B681B68B5
:103FE00003F1340318464FF000014FF40072FFF75D
:103FF000D9FA7B681C687B681B681846F968FFF76C
:10400000C9FB034623634FF00003FB7219E07B6892
:104010001B684FF001021A717B681B681846FFF796
:1040200037FB0346002B02D04FF0010334E07B68DE
:104030001B681A6B02F101021A63FB7A03F1010398
:10404000FB727B681B689B78FA7A9A42DFD37B68A5
:104050001B687A681268116BFA7A8A1A1A637B688D
:10406000FA68DA607B681B681846F968FFF792FB0C
:1040700002467B681A617B683A89DA807B681B6834
:1040800003F134023B8903F00F034FEA4313D218C4
:104090007B685A614FF00003184607F11407BD46CC
:1040A00090BD00BF80B584B000AF7860396078689B
:1040B0004FF00001FFF77EFE0346FB73FB7B002BF6
:1040C00031D14FF00003BB607B681A687B681B69C5
:1040D00010461946FFF72EFB0346FB73FB7B002BB4
:1040E00020D17B685B691B78E52B04D07B685B691A
:1040F0001B78002B08D1BB6803F10103BB60BA68D1
:104100003B689A4203D10EE04FF00003BB60786831
:104110004FF00101FFF7DAFE0346FB73FB7B002B38
:10412000D2D000E000BFFB7B184607F11007BD4668
:1041300080BD00BF80B485B000AF786039603B6857
:1041400003F11B031B784FEA03239AB23B6803F188
:104150001A031B7813439BB29BB2FB607B681B78EE
:10416000032B12D13B6803F115031B784FEA03239D
:104170009AB23B6803F114031B7813439BB29BB2C2
:104180004FEA0343FA681343FB60FB68184607F1E4
:104190001407BD4680BC704780B483B000AF786020
:1041A00039607B6803F11A033A68D2B21A707B68EF
:1041B00003F11B033A6892B24FEA122292B2D2B2D2
:1041C0001A707B6803F114033A684FEA1242D2B2C4
:1041D0001A707B6803F115033A684FEA124292B2F3
:1041E0004FEA122292B2D2B21A7007F10C07BD4602
:1041F00080BC704780B586B000AF786039603B689E
:104200001B7823F0400303F1FF3213464FEA4303C8
:104210009B184FEA83039B187B614FF000033B61BF
:104220004FF00103FB814AF22473C0F600033A69A0
:104230009B181B7803F101033A68D3181B784FEAE7
:1042400003239AB24AF22473C0F6000339695B185B
:104250001B783968CB181B7813439BB2BB81FB8951
:10426000002B1CD0BB891846FCF7EAFC0346FB81F7
:104270007B69FE2B10D87B694FEA43037A68D31819
:104280001B887A6902F101027A611846FCF7D8FCB2
:104290000346FA899A420AD04FF0000324E0BA8913
:1042A0004FF6FF739A4202D04FF000031CE03B69C7
:1042B00003F101033B613B690C2BB4D93B681B78CC
:1042C00003F04003002B0DD0FB89002B0AD07B6943
:1042D0004FEA43037A68D3181B88002B02D04FF0B3
:1042E000000301E04FF00103184607F11807BD462F
:1042F00080BD00BF80B487B000AF786039603B6894
:104300001B7803F03F0303F1FF3213464FEA4303E8
:104310009B184FEA83039B187B614FF000033B61BE
:104320004FF00103FB814AF22473C0F600033A699F
:104330009B181B7803F101033A68D3181B784FEAE6
:1043400003239AB24AF22473C0F6000339695B185A
:104350001B783968CB181B7813439BB2BB81FB8950
:10436000002B13D07B69FE2B02D94FF0000332E003
:104370007B694FEA43037A68D318BA89FA81FA89CC
:104380001A807B6903F101037B6107E0BA894FF66C
:10439000FF739A4202D04FF000031CE03B6903F127
:1043A00001033B613B690C2BBDD93B681B7803F0D3
:1043B0004003002B0DD07B69FE2B02D94FF0000388
:1043C00009E07B694FEA43037A68D3184FF0000293
:1043D0001A804FF00103184607F11C07BD4680BC48
:1043E000704700BF80B489B000AFF860B960FA715F
:1043F000BB71BB6803F10D03BA791A70BB6803F196
:104400000B034FF00F021A70BB6803F10C034FF05F
:1044100000021A70BB6803F11A034FF000021A7011
:10442000BB6803F11B034FF000021A70FB7903F124
:10443000FF3213464FEA43039B184FEA83039B184E
:10444000FB614FF00003FB824FF00003BB61FA8A6F
:104450004FF6FF739A420AD0FB694FEA4303FA68AA
:10446000D3181B88FB82FB6903F10103FB614AF24D
:104470002473C0F60003BA699B181B78BA68D31876
:10448000FA8AD2B21A704AF22473C0F60003BA69EB
:104490009B181B7803F10103BA68D318FA8A4FEA14
:1044A000122292B2D2B21A70FB8A002B02D14FF6BE
:1044B000FF73FB82BB6903F10103BB61BB690C2B7A
:1044C000C5D9FA8A4FF6FF739A4207D0FB694FEAC3
:1044D0004303FA68D3181B88002B03D1FB7943F000
:1044E0004003FB71BB68FA791A7007F12407BD46D7
:1044F00080BC704780B58AB000AFF860B9607A6060
:104500007B80F868B9684FF00B02FFF723F87B88CF
:10451000052B13D97B884FEAC3329BB24FEA530372
:1045200013439AB27B681B88D3187B807B6803F1A6
:1045300002037B607B681B88002BEBD14FF00703E5
:104540003B627B88DBB203F00F03DBB203F1300385
:1045500087F8273097F82730392B05D997F8273077
:1045600003F1070387F8273007F114023B6AD318D9
:1045700097F827201A703B6A03F1FF333B627B8870
:104580004FEA13137B807B88002BDAD107F11402EA
:104590003B6AD3184FF07E021A704FF00003FB61A4
:1045A00003E0FB6903F10103FB61FA693B6A9A428C
:1045B00005D2FA68FB69D3181B78202BF1D1FA6871
:1045C000FB69D2183B6A072B09D807F114013B6A33
:1045D000CB181B78396A01F10101396201E04FF013
:1045E00020031370FB6903F10103FB61FB69072BD7
:1045F000E5D907F12807BD4680BD00BF80B485B06E
:1046000000AF78604FF00003FB734FF00B03BB600B
:10461000FB7B4FEAC312DBB24FEA53031343DAB218
:104620007B681B78D318FB737B6803F101037B6005
:10463000BB6803F1FF33BB60BB68002BE8D1FB7B99
:10464000184607F11407BD4680BC704780B586B098
:1046500000AF786078684FF00001FFF7ABFB0346CE
:10466000FB75FB7D002B01D0FB7DA2E04FF0FF032B
:104670003B753B7D7B757B681A687B681B691046C0
:104680001946FFF757F80346FB75FB7D002B40F0FA
:104690008A807B685B693B613B691B78BB75BB7D2E
:1046A000002B03D14FF00403FB7581E03B6903F15C
:1046B0000B031B7803F03F03FB73BB7DE52B07D097
:1046C000FB7B03F00803002B06D0FB7B0F2B03D0F2
:1046D0004FF0FF037B755AE0FB7B0F2B32D17B68D9
:1046E000DB69002B53D0BB7D03F04003002B0CD0C3
:1046F0003B695B7B3B75BB7D23F04003BB75BB7D9A
:104700007B757B68DA887B681A84BA7D7B7D9A42E8
:1047100014D13B6903F10D031B783A7D9A420DD108
:104720007B68DB6918463969FFF764FD0346002B97
:1047300004D07B7D03F1FF33DBB201E04FF0FF03D8
:104740007B7524E07B7D002B06D13869FFF756FF8F
:1047500003463A7D9A4228D04FF0FF037B757B6871
:104760004FF6FF721A847B689B6903F10B031B7879
:1047700003F00103002B0AD17B689B693869194655
:104780004FF00B02FEF730FF0346002B0FD0786886
:104790004FF00001FFF79AFB0346FB75FB7D002BF2
:1047A0003FF469AF04E000BF02E000BF00E000BFDB
:1047B000FB7D184607F11807BD4680BD80B586B061
:1047C00000AF786039604FF0FF037B754FF0FF0357
:1047D0003B754FF00403FB757DE07B681A687B68CE
:1047E0001B6910461946FEF7A5FF0346FB75FB7DC6
:1047F000002B76D17B685B693B613B691B78BB759D
:10480000BB7D002B03D14FF00403FB756EE03B69C9
:1048100003F10B031B7803F03F03FB73BB7DE52B18
:104820000AD0BB7D2E2B07D0FB7B082B14BF0022A8
:1048300001223B689A4203D04FF0FF037B7540E0B2
:10484000FB7B0F2B2ED1BB7D03F04003002B0CD044
:104850003B695B7B3B75BB7D23F04003BB75BB7D38
:104860007B757B68DA887B681A84BA7D7B7D9A4287
:1048700014D13B6903F10D031B783A7D9A420DD1A7
:104880007B68DB6918463969FFF734FD0346002B66
:1048900004D07B7D03F1FF33DBB201E04FF0FF0377
:1048A0007B750EE07B7D002B06D13869FFF7A6FEF5
:1048B00003463A7D9A4216D07B684FF6FF721A84FF
:1048C00011E078684FF00001FFF700FB0346FB752D
:1048D000FB7D002B09D17B681B69002B7FF47DAF2A
:1048E00004E000BF02E000BF00E000BFFB7D002B42
:1048F00003D07B684FF000021A61FB7D184607F178
:104900001807BD4680BD00BF80B58AB000AF786093
:104910007B689B69FB617B68DB69BB6107F108030E
:104920001846F9694FF00C02FEF714FEFB7C03F009
:104930000103DBB2002B3DD0FB6903F10B034FF009
:1049400000021A707B684FF00002DA614FF0010339
:10495000BB8415E007F10802BB8CF8691146BA69FF
:10496000FFF7C8FD7868FFF771FE034687F8273028
:1049700097F82730002B07D1BB8C03F10103BB84D0
:10498000BB8C632BE6D900E000BFBB8C642B02D14B
:104990004FF00703CCE097F82730042B02D097F8AC
:1049A0002730C5E0FB6903F10B03FA7C1A707B68C2
:1049B000BA69DA61FB7C03F00203002B1FD04FF0D1
:1049C0000003BB8403E0BB8C03F10103BB84BB8CFD
:1049D0004FEA4303BA69D3181B88002BF3D1BB8C71
:1049E00003F119024EF64F43C4F6C46383FB02136E
:1049F0004FEAA3014FEAE273CB1A7B8402E04FF047
:104A000001037B847B8C78681946FFF74BFB0346D8
:104A100087F8273097F82730002B4FD17B8C03F194
:104A2000FF337B847B8C002B48D07B68DA887B8CBF
:104A3000D31A9BB278681946FFF7BCF9034687F88A
:104A4000273097F82730002B38D17B689B691846B0
:104A5000FFF7D4FD0346FB757B681A687B681B690A
:104A600010461946FEF766FE034687F8273097F88A
:104A70002730002B21D17B68D8697B6859697B8CF2
:104A8000DAB2FB7DFFF7AEFC7B681B684FF00102DA
:104A90001A7178684FF00001FFF718FA034687F89B
:104AA000273097F82730002B08D17B8C03F1FF3398
:104AB0007B847B8C002BCFD100E000BF97F82730A0
:104AC000002B33D17B681A687B681B691046194636
:104AD000FEF730FE034687F8273097F82730002B83
:104AE00024D17B685B6918464FF000014FF020022B
:104AF000FEF758FD7B685A697B689B69104619462A
:104B00004FF00B02FEF726FD7B685B6903F10C0397
:104B10007A68926902F10B02127802F01802D2B29E
:104B20001A707B681B684FF001021A7197F82730E2
:104B3000184607F12807BD4680BD00BF80B58AB082
:104B400000AF786039603B681B683B6103E03B69FC
:104B500003F101033B613B691B782F2BF7D03B69C5
:104B60001B785C2BF3D07B68DB69FB604FF00003A4
:104B70007B617B69BB613A69BB69D3181B78BB84D5
:104B8000BB6903F10103BB61BB8C1F2B39D9BB8C03
:104B90002F2B36D0BB8C5C2B33D07B69FE2B02D9FC
:104BA0004FF00603A6E1BB8CDBB2BB84BB8C18467E
:104BB0004FF00101FCF700F80346BB84BB8C002BCF
:104BC00002D14FF0060395E1BB8C7F2B0DD8BB8C37
:104BD0004AF23470C0F600001946FEF73DFD034668
:104BE000002B02D04FF0060384E17B694FEA4303B8
:104BF000FA68D318BA8C1A807B6903F101037B61D0
:104C0000B9E73A69BB69D2183B681A60BB8C1F2BA5
:104C100002D84FF0040301E04FF0000387F826307C
:104C200012E07B6903F1FF334FEA4303FA68D318BC
:104C30001B88BB84BB8C202B02D0BB8C2E2B07D1B6
:104C40007B6903F1FF337B617B69002BE9D100E0D5
:104C500000BF7B69002B02D14FF006034AE17B695C
:104C60004FEA4303FA68D3184FF000021A807B68BA
:104C70009B6918464FF020014FF00B02FEF792FCA3
:104C80004FF00003BB6103E0BB6903F10103BB61AB
:104C9000BB694FEA4303FA68D3181B88202BF3D073
:104CA000BB694FEA4303FA68D3181B882E2BEBD05D
:104CB000BB69002B0AD097F8263043F0030387F82E
:104CC000263003E07B6903F1FF337B617B69002BB6
:104CD00009D07B6903F1FF334FEA4303FA68D31825
:104CE0001B882E2BEED14FF000033B624FF00003E8
:104CF00087F827304FF00803FB61BB694FEA430395
:104D0000FA68D3181B88BB84BB6903F10103BB613C
:104D1000BB8C002B00F09F80BB8C202B06D0BB8C63
:104D20002E2B0AD1BA697B699A4206D097F82630B1
:104D300043F0030387F826308CE03A6AFB699A4215
:104D400003D2BA697B699A4226D1FB690B2B06D143
:104D500097F8263043F0030387F826307EE0BA69DF
:104D60007B699A4205D097F8263043F0030387F811
:104D70002630BA697B699A426FD87B69BB614FF074
:104D800008033B624FF00B03FB6197F827304FEAB3
:104D9000830387F827305DE0BB8C7F2B19D9BB8C50
:104DA00018464FF00001FBF707FF0346BB84BB8C9E
:104DB000002B08D0BB8CA3F180024AF2A463C0F69A
:104DC00000039B5CBB8497F8263043F0020387F80E
:104DD0002630BB8C002B0AD0BB8C4AF24070C0F648
:104DE00000001946FEF738FC0346002B09D04FF0AF
:104DF0005F03BB8497F8263043F0030387F826301F
:104E00001CE0BB8C402B09D9BB8C5A2B06D897F8D9
:104E1000273043F0020387F827300FE0BB8C602B6C
:104E20000CD9BB8C7A2B09D897F8273043F00103B3
:104E300087F82730BB8CA3F12003BB847B689A6979
:104E40003B6AD318BA8CD2B21A703B6A03F10103E1
:104E50003B6252E751E700BF00E000BF7B689B69FF
:104E60001B78E52B04D17B689B694FF005021A7013
:104E7000FB69082B05D197F827304FEA830387F8A1
:104E8000273097F8273003F00C030C2B05D097F848
:104E9000273003F00303032B05D197F8263043F0A6
:104EA000020387F8263097F8263003F00203002B20
:104EB00017D197F8273003F00303012B05D197F89A
:104EC000263043F0100387F8263097F8273003F098
:104ED0000C03042B05D197F8263043F0080387F81C
:104EE00026307B689B6903F10B0397F826201A7024
:104EF0004FF00003184607F12807BD4680BD00BFEC
:104F000080B58AB000AF786039603B6803F109036F
:104F10003B627B681B69002B00F0AF807B685B699C
:104F20007B617B691B7BFB744FF000037B6227E096
:104F30007A697B6AD3181B78FB77FB7F202B23D001
:104F4000FB7F052B02D14FF0E503FB77FB7C03F0E1
:104F50000803002B09D0FB7F402B06D9FB7F5A2B7F
:104F600003D8FB7F03F12003FB773B6AFA7F1A70BB
:104F70003B6A03F101033B627B6A03F101037B623D
:104F80007B6A072BD4D900E000BF7B6903F10803DB
:104F90001B78202B32D03B6A4FF02E021A703B6AEE
:104FA00003F101033B624FF008037B6221E07A6961
:104FB0007B6AD3181B78FB77FB7F202B1DD0FB7CF3
:104FC00003F01003002B09D0FB7F402B06D9FB7F99
:104FD0005A2B03D8FB7F03F12003FB773B6AFA7F50
:104FE0001A703B6A03F101033B627B6A03F1010320
:104FF0007B627B6A0A2BDAD900E000BF7B69DA7A30
:105000003B681A727B6903F11F031B784FEA036246
:105010007B6903F11E031B784FEA03431A437B6944
:1050200003F11D031B784FEA03231A437B6903F145
:105030001C031B781A433B681A607B6903F1190350
:105040001B784FEA03239AB27B6903F118031B789C
:1050500013439BB29AB23B689A807B6903F11703B2
:105060001B784FEA03239AB27B6903F116031B787E
:1050700013439BB29AB23B68DA803B6A4FF000025E
:105080001A703B689B69002B50D03B68DB69002B92
:105090004CD03B689B69FB604FF000037B627B68F0
:1050A0001B69002B3CD07B681A8C4FF6FF739A4229
:1050B00036D07B68DB69BB6123E07B8918464FF003
:1050C0000001FBF779FD03467B817B89002B03D12F
:1050D0004FF000037B6223E03B68DB6903F1FF32A2
:1050E0007B6A9A4203D84FF000037B6218E0FA68AB
:1050F0007B6AD3187A89D2B21A707B6A03F10103F2
:105100007B62BB691B887B817B89002B0CBF0023E2
:105110000123DBB2BA6902F10202BA61002BCCD1E1
:10512000FA687B6AD3184FF000021A7007F128075B
:10513000BD4680BD80B584B000AF786039603B6803
:105140001B782F2B03D03B681B785C2B03D13B686B
:1051500003F101033B607B684FF000029A603B68FB
:105160001B781F2B0BD878684FF00001FEF722FE4A
:105170000346FB737B684FF000025A6146E03B46F2
:1051800078681946FFF7DAFC0346FB73FB7B002BBC
:1051900035D17868FFF75AFA0346FB737B689B6941
:1051A000DB7ABB73FB7B002B0BD0FB7B042B28D162
:1051B000BB7B03F00403002B25D14FF00503FB73E9
:1051C00021E0BB7B03F00403002B1ED17B685B69ED
:1051D000BB60BB6803F10B031B7803F01003002BCB
:1051E00003D14FF00503FB7310E07B681B68184682
:1051F000B968FEF79FFF02467B689A60BFE700BF71
:1052000004E000BF02E000BF00E000BFFB7B1846E7
:1052100007F11007BD4680BD80B582B000AF786051
:1052200039607B685A787B6803F13403104619466D
:105230003A684FF0010301F0E5FE0346002B02D06F
:105240004FF0030356E07B6893F833324FEA0323B1
:105250009AB27B6893F8323213439BB21AB24AF681
:105260005523CFF6FF739A4202D04FF0020341E07C
:105270007B6893F86D304FEA03627B6893F86C307B
:105280004FEA03431A437B6893F86B304FEA0323DA
:105290001A437B6893F86A30134323F07F4244F249
:1052A0004613C0F254039A4202D14FF0000321E0AA
:1052B0007B6893F889304FEA03627B6893F8883003
:1052C0004FEA03431A437B6893F887304FEA03237E
:1052D0001A437B6893F88630134323F07F4244F2ED
:1052E0004613C0F254039A4202D14FF0000301E08A
:1052F0004FF00103184607F10807BD4680BD00BF07
:1053000080B592B000AFF860B9601346FB71FB68DE
:105310001B68FB62FB6A1B78A3F130033B643B6CA8
:10532000092B0DD8FB6A03F101031B783A2B07D137
:10533000FB6A03F10203FB62FB68FA6A1A6002E08F
:105340004FF000033B64BB684FF000021A603B6CF7
:10535000002B02D04FF00B03D3E240F61873C2F2D9
:1053600000033A6C53F82230BB62BB6A002B02D1B7
:105370004FF00C03C5E2BB68BA6A1A60BB6A1B78BF
:10538000002B1CD0BB6A5B78184601F023FE034655
:1053900087F8273097F8273003F00103002B0ED150
:1053A000FB79002B08D097F8273003F00403002B7B
:1053B00002D04FF00A03A4E24FF00003A1E2BB6A5F
:1053C0004FF000021A703B6CDAB2BB6A5A70BB6ACB
:1053D0005B78184601F0F0FC034687F8273097F811
:1053E000273003F00103DBB2002B02D04FF00303A0
:1053F00087E2FB79002B08D097F8273003F00403ED
:10540000002B02D04FF00A037BE24FF00003FB6356
:10541000B86AF96BFFF700FF034687F8473097F843
:105420004730012B3FD14FF0000387F8463097F803
:105430004630002B05D097F8463003F1FF3387F84C
:105440004630BB6A03F1340297F846304FEA031343
:1054500003F5DF73D3183B623B6A03F104031B7847
:10546000002B20D03B6A03F10B031B784FEA036249
:105470003B6A03F10A031B784FEA03431A433B6A72
:1054800003F109031B784FEA03231A433B6A03F134
:1054900008031B781343FB63B86AF96BFFF7BCFE84
:1054A000034687F8473097F84730032B02D14FF077
:1054B000010326E297F84730002B02D04FF00D038E
:1054C0001FE2BB6A93F840304FEA03239AB2BB6AEB
:1054D00093F83F3013439BB21BB2B3F5007F02D069
:1054E0004FF00D030DE2BB6A93F84B304FEA0323F4
:1054F0009AB2BB6A93F84A3013439BB29BB2BB6328
:10550000BB6B002B15D1BB6A93F85B304FEA03628B
:10551000BB6A93F85A304FEA03431A43BB6A93F8C5
:1055200059304FEA03231A43BB6A93F858301343A8
:10553000BB63BB6ABA6BDA61BB6A93F84430FB7732
:10554000BB6AFA7FDA70FB7F012B05D0FB7F022B51
:1055500002D04FF00D03D4E1FA7FBB6B02FB03F3E3
:10556000BB63BB6A93F84130FB77BB6AFA7F9A70E2
:10557000FB7F002B06D0FA7FFB7F03F1FF33134044
:10558000002B02D04FF00D03BBE1BB6A93F846300D
:105590004FEA03239AB2BB6A93F8453013439BB298
:1055A0009AB2BB6A1A81BB6A1B8903F00F039BB2D4
:1055B000002B02D04FF00D03A3E1BB6A93F84830F3
:1055C0004FEA03239AB2BB6A93F8473013439BB266
:1055D0009BB27B637B6B002B15D1BB6A93F8573072
:1055E0004FEA0362BB6A93F856304FEA03431A430B
:1055F000BB6A93F855304FEA03231A43BB6A93F80A
:10560000543013437B63BB6A93F843304FEA032360
:105610009AB2BB6A93F8423013439BB2BB83BB8BF5
:10562000002B02D14FF00D036BE1BA8BBB6BD2188C
:10563000BB6A1B894FEA13139BB2D318BB617A6B09
:10564000BB699A4202D24FF00D035AE17A6BBB69F3
:10565000D21ABB6A9B78B2FBF3F37B617B69002BA8
:1056600002D14FF00D034CE14FF0010387F84730B2
:105670007A6940F6F5739A4203D94FF0020387F82E
:1056800047307A694FF6F5739A4203D94FF0030316
:1056900087F847307B6903F10202BB6A9A61BB6AF3
:1056A000FA6B1A62BA8BFB6BD218BB6A5A62FA6B3E
:1056B000BB69D218BB6ADA6297F84730032B23D153
:1056C000BB6A1B89002B02D04FF00D0319E1BB6AA6
:1056D00093F863304FEA0362BB6A93F862304FEA93
:1056E00003431A43BB6A93F861304FEA03231A431A
:1056F000BB6A93F860301A43BB6A9A62BB6A9B69C3
:105700004FEA83033B6323E0BB6A1B89002B02D172
:105710004FF00D03F5E0BB6A5A6ABB6BD218BB6A47
:105720009A6297F84730022B04D1BB6A9B694FEA13
:1057300043030CE0BB6A9A6913464FEA43039B1884
:105740004FEA5302BB6A9B6903F00103D3183B6322
:10575000BB6ADA693B6B03F5FE7303F103034FEA9F
:1057600053239A4202D24FF00D03CAE0BB6A4FF0B6
:10577000FF321A61BB6A4FF00002DA6097F84730D7
:10578000032B40F09C80BB6A4FF000025A71BB6A49
:1057900093F865304FEA03239AB2BB6A93F86430FA
:1057A00013439BB29BB21A46FB6BD218BB6A5A6179
:1057B000BB6A5978BB6A03F13402BB6A5B6908466D
:1057C00011461A464FF0010301F01CFC0346002B62
:1057D00075D1BB6A93F833324FEA03239AB2BB6A9E
:1057E00093F8323213439BB21AB24AF65523CFF6DE
:1057F000FF739A4263D1BB6A93F837304FEA036272
:10580000BB6A93F836304FEA03431A43BB6A93F8F6
:1058100035304FEA03231A43BB6A93F834301A43F6
:1058200045F25223C4F261139A4248D1BB6A93F8FD
:105830001B324FEA0362BB6A93F81A324FEA034302
:105840001A43BB6A93F819324FEA03231A43BB6A1F
:1058500093F818321A4347F27223C6F241139A4260
:105860002DD1BB6A93F823324FEA0362BB6A93F8E7
:1058700022324FEA03431A43BB6A93F821324FEABC
:1058800003231A43BB6A93F820321A43BB6ADA60D7
:10589000BB6A93F81F324FEA0362BB6A93F81E3269
:1058A0004FEA03431A43BB6A93F81D324FEA0323BE
:1058B0001A43BB6A93F81C321A43BB6A1A61BB6A6B
:1058C00097F847201A7040F61C73C2F200031B8839
:1058D00003F101039AB240F61C73C2F200031A806E
:1058E00040F61C73C2F200031A88BB6ADA80BB6AF6
:1058F0004FF000021A63BB6A4FF000021A714FF0BA
:105900000003184607F14807BD4680BD80B584B046
:1059100000AF78607B68FB60FB68002B02D14FF022
:10592000090329E0FB681B68002B02D14FF0090333
:1059300022E0FB681B681B78002B02D14FF00903A3
:105940001AE0FB681B68DA88FB689B889A4202D0E1
:105950004FF0090310E0FB681B685B78184601F004
:1059600039FB034603F00103DBB2002B02D04FF0FA
:10597000030301E04FF00003184607F11007BD468E
:1059800080BD00BF80B485B000AF03463960FB71B5
:10599000FB79002B02D04FF00B031FE0FA7940F6A1
:1059A0001873C2F2000353F82230FB60FB68002B2F
:1059B00003D0FB684FF000021A703B68002B03D045
:1059C0003B684FF000021A70FA7940F61873C2F281
:1059D0000003396843F822104FF00003184607F11E
:1059E0001407BD4680BC704780B594B000AFF86026
:1059F000B9601346FB71FB68002B02D14FF009031D
:105A00005DE1FB684FF000021A60FB7903F01F03B1
:105A1000FB71FB7923F00103DBB207F1080107F109
:105A20001C02084611461A46FFF76AFC034687F82F
:105A30004F3097F84F30002B40F03F8107F11003B3
:105A40007B6340F62073C2F20003BB63BB6807F1BF
:105A50001C0210461946FFF76DFB034687F84F30CE
:105A60003B6BBB6497F84F30002B06D1BB6C002B0F
:105A700003D14FF0060387F84F30FB7903F01C0386
:105A8000002B00F0AA8097F84F30002B12D097F827
:105A90004F30042B07D107F11C031846FEF734FFE3
:105AA000034687F84F30FB7943F00803FB713B6BEB
:105AB000BB6415E0BB6C03F10B031B7803F011030F
:105AC000002B04D04FF0070387F84F3008E0FB7934
:105AD00003F00403002B03D04FF0080387F84F3086
